{
  "contractName": "ItemManager",
  "abi": [
    {
      "anonymous": false,
      "inputs": [
        {
          "indexed": false,
          "internalType": "uint256",
          "name": "_itemIndex",
          "type": "uint256"
        },
        {
          "indexed": false,
          "internalType": "uint256",
          "name": "_step",
          "type": "uint256"
        },
        {
          "indexed": false,
          "internalType": "address",
          "name": "_itemAddress",
          "type": "address"
        }
      ],
      "name": "SupplyChainStep",
      "type": "event"
    },
    {
      "inputs": [],
      "name": "_owner",
      "outputs": [
        {
          "internalType": "address",
          "name": "",
          "type": "address"
        }
      ],
      "stateMutability": "view",
      "type": "function",
      "constant": true
    },
    {
      "inputs": [],
      "name": "isOwner",
      "outputs": [
        {
          "internalType": "bool",
          "name": "",
          "type": "bool"
        }
      ],
      "stateMutability": "view",
      "type": "function",
      "constant": true
    },
    {
      "inputs": [
        {
          "internalType": "uint256",
          "name": "",
          "type": "uint256"
        }
      ],
      "name": "items",
      "outputs": [
        {
          "internalType": "contract Item",
          "name": "_item",
          "type": "address"
        },
        {
          "internalType": "enum ItemManager.SupplyChainState",
          "name": "_state",
          "type": "uint8"
        },
        {
          "internalType": "string",
          "name": "_identifier",
          "type": "string"
        },
        {
          "internalType": "uint256",
          "name": "_itemPrice",
          "type": "uint256"
        }
      ],
      "stateMutability": "view",
      "type": "function",
      "constant": true
    },
    {
      "inputs": [
        {
          "internalType": "string",
          "name": "_identifier",
          "type": "string"
        },
        {
          "internalType": "uint256",
          "name": "_itemPrice",
          "type": "uint256"
        }
      ],
      "name": "createItem",
      "outputs": [],
      "stateMutability": "nonpayable",
      "type": "function"
    },
    {
      "inputs": [
        {
          "internalType": "uint256",
          "name": "_itemIndex",
          "type": "uint256"
        }
      ],
      "name": "triggerPayment",
      "outputs": [],
      "stateMutability": "payable",
      "type": "function",
      "payable": true
    },
    {
      "inputs": [
        {
          "internalType": "uint256",
          "name": "_index",
          "type": "uint256"
        }
      ],
      "name": "triggerDelivery",
      "outputs": [],
      "stateMutability": "nonpayable",
      "type": "function"
    }
  ],
  "bytecode": "0x608060405234801561001057600080fd5b50336000806101000a81548173ffffffffffffffffffffffffffffffffffffffff021916908373ffffffffffffffffffffffffffffffffffffffff1602179055506118e3806100606000396000f3fe6080604052600436106200005c5760003560e01c8063800fb83f14620000615780638c55174214620000815780638f32d59b14620000af578063b2bdfa7b14620000df578063bfb231d2146200010f578063cd31831e1462000156575b600080fd5b6200007f6004803603810190620000799190620009b3565b62000184565b005b3480156200008e57600080fd5b50620000ad6004803603810190620000a7919062000b47565b62000361565b005b348015620000bc57600080fd5b50620000c76200056f565b604051620000d6919062000bca565b60405180910390f35b348015620000ec57600080fd5b50620000f7620005c6565b60405162000106919062000c2c565b60405180910390f35b3480156200011c57600080fd5b506200013b6004803603810190620001359190620009b3565b620005ea565b6040516200014d949392919062000dd8565b60405180910390f35b3480156200016357600080fd5b506200018260048036038101906200017c9190620009b3565b620006d7565b005b34600160008381526020019081526020016000206002015414620001df576040517f08c379a0000000000000000000000000000000000000000000000000000000008152600401620001d69062000e7c565b60405180910390fd5b60006002811115620001f657620001f562000cb4565b5b6001600083815260200190815260200160002060000160149054906101000a900460ff1660028111156200022f576200022e62000cb4565b5b1462000272576040517f08c379a0000000000000000000000000000000000000000000000000000000008152600401620002699062000f14565b60405180910390fd5b600180600083815260200190815260200160002060000160146101000a81548160ff02191690836002811115620002ae57620002ad62000cb4565b5b02179055507fa4035636e99f06b7651a604c1019fa4e8779fe68ef27eeb74dff2de348f6199b816001600084815260200190815260200160002060000160149054906101000a900460ff1660028111156200030e576200030d62000cb4565b5b6001600085815260200190815260200160002060000160009054906101000a900473ffffffffffffffffffffffffffffffffffffffff16604051620003569392919062000f36565b60405180910390a150565b6200036b6200056f565b620003ad576040517f08c379a0000000000000000000000000000000000000000000000000000000008152600401620003a49062000fc3565b60405180910390fd5b60003082600254604051620003c290620008a6565b620003d0939291906200101e565b604051809103906000f080158015620003ed573d6000803e3d6000fd5b5090508060016000600254815260200190815260200160002060000160006101000a81548173ffffffffffffffffffffffffffffffffffffffff021916908373ffffffffffffffffffffffffffffffffffffffff16021790555082600160006002548152602001908152602001600020600101908051906020019062000475929190620008b4565b508160016000600254815260200190815260200160002060020181905550600060016000600254815260200190815260200160002060000160146101000a81548160ff02191690836002811115620004d257620004d162000cb4565b5b02179055507fa4035636e99f06b7651a604c1019fa4e8779fe68ef27eeb74dff2de348f6199b60025460016000600254815260200190815260200160002060000160149054906101000a900460ff16600281111562000536576200053562000cb4565b5b83604051620005489392919062000f36565b60405180910390a16002600081548092919062000565906200108a565b9190505550505050565b60008060009054906101000a900473ffffffffffffffffffffffffffffffffffffffff1673ffffffffffffffffffffffffffffffffffffffff163373ffffffffffffffffffffffffffffffffffffffff1614905090565b60008054906101000a900473ffffffffffffffffffffffffffffffffffffffff1681565b60016020528060005260406000206000915090508060000160009054906101000a900473ffffffffffffffffffffffffffffffffffffffff16908060000160149054906101000a900460ff1690806001018054620006489062001106565b80601f0160208091040260200160405190810160405280929190818152602001828054620006769062001106565b8015620006c75780601f106200069b57610100808354040283529160200191620006c7565b820191906000526020600020905b815481529060010190602001808311620006a957829003601f168201915b5050505050908060020154905084565b620006e16200056f565b62000723576040517f08c379a00000000000000000000000000000000000000000000000000000000081526004016200071a9062000fc3565b60405180910390fd5b600160028111156200073a576200073962000cb4565b5b6001600083815260200190815260200160002060000160149054906101000a900460ff16600281111562000773576200077262000cb4565b5b14620007b6576040517f08c379a0000000000000000000000000000000000000000000000000000000008152600401620007ad9062000f14565b60405180910390fd5b60026001600083815260200190815260200160002060000160146101000a81548160ff02191690836002811115620007f357620007f262000cb4565b5b02179055507fa4035636e99f06b7651a604c1019fa4e8779fe68ef27eeb74dff2de348f6199b816001600084815260200190815260200160002060000160149054906101000a900460ff16600281111562000853576200085262000cb4565b5b6001600085815260200190815260200160002060000160009054906101000a900473ffffffffffffffffffffffffffffffffffffffff166040516200089b9392919062000f36565b60405180910390a150565b610772806200113c83390190565b828054620008c29062001106565b90600052602060002090601f016020900481019282620008e6576000855562000932565b82601f106200090157805160ff191683800117855562000932565b8280016001018555821562000932579182015b828111156200093157825182559160200191906001019062000914565b5b50905062000941919062000945565b5090565b5b808211156200096057600081600090555060010162000946565b5090565b6000604051905090565b600080fd5b600080fd5b6000819050919050565b6200098d8162000978565b81146200099957600080fd5b50565b600081359050620009ad8162000982565b92915050565b600060208284031215620009cc57620009cb6200096e565b5b6000620009dc848285016200099c565b91505092915050565b600080fd5b600080fd5b6000601f19601f8301169050919050565b7f4e487b7100000000000000000000000000000000000000000000000000000000600052604160045260246000fd5b62000a3a82620009ef565b810181811067ffffffffffffffff8211171562000a5c5762000a5b62000a00565b5b80604052505050565b600062000a7162000964565b905062000a7f828262000a2f565b919050565b600067ffffffffffffffff82111562000aa25762000aa162000a00565b5b62000aad82620009ef565b9050602081019050919050565b82818337600083830152505050565b600062000ae062000ada8462000a84565b62000a65565b90508281526020810184848401111562000aff5762000afe620009ea565b5b62000b0c84828562000aba565b509392505050565b600082601f83011262000b2c5762000b2b620009e5565b5b813562000b3e84826020860162000ac9565b91505092915050565b6000806040838503121562000b615762000b606200096e565b5b600083013567ffffffffffffffff81111562000b825762000b8162000973565b5b62000b908582860162000b14565b925050602062000ba3858286016200099c565b9150509250929050565b60008115159050919050565b62000bc48162000bad565b82525050565b600060208201905062000be1600083018462000bb9565b92915050565b600073ffffffffffffffffffffffffffffffffffffffff82169050919050565b600062000c148262000be7565b9050919050565b62000c268162000c07565b82525050565b600060208201905062000c43600083018462000c1b565b92915050565b6000819050919050565b600062000c7462000c6e62000c688462000be7565b62000c49565b62000be7565b9050919050565b600062000c888262000c53565b9050919050565b600062000c9c8262000c7b565b9050919050565b62000cae8162000c8f565b82525050565b7f4e487b7100000000000000000000000000000000000000000000000000000000600052602160045260246000fd5b6003811062000cf75762000cf662000cb4565b5b50565b600081905062000d0a8262000ce3565b919050565b600062000d1c8262000cfa565b9050919050565b62000d2e8162000d0f565b82525050565b600081519050919050565b600082825260208201905092915050565b60005b8381101562000d7057808201518184015260208101905062000d53565b8381111562000d80576000848401525b50505050565b600062000d938262000d34565b62000d9f818562000d3f565b935062000db181856020860162000d50565b62000dbc81620009ef565b840191505092915050565b62000dd28162000978565b82525050565b600060808201905062000def600083018762000ca3565b62000dfe602083018662000d23565b818103604083015262000e12818562000d86565b905062000e23606083018462000dc7565b95945050505050565b7f4e6f742066756c6c792070616964000000000000000000000000000000000000600082015250565b600062000e64600e8362000d3f565b915062000e718262000e2c565b602082019050919050565b6000602082019050818103600083015262000e978162000e55565b9050919050565b7f4974656d206973206675727468657220696e2074686520737570706c7920636860008201527f61696e0000000000000000000000000000000000000000000000000000000000602082015250565b600062000efc60238362000d3f565b915062000f098262000e9e565b604082019050919050565b6000602082019050818103600083015262000f2f8162000eed565b9050919050565b600060608201905062000f4d600083018662000dc7565b62000f5c602083018562000dc7565b62000f6b604083018462000c1b565b949350505050565b7f4f776e61626c653a2063616c6c6572206973206e6f7420746865206f776e6572600082015250565b600062000fab60208362000d3f565b915062000fb88262000f73565b602082019050919050565b6000602082019050818103600083015262000fde8162000f9c565b9050919050565b600062000ff28262000c53565b9050919050565b6000620010068262000fe5565b9050919050565b620010188162000ff9565b82525050565b60006060820190506200103560008301866200100d565b62001044602083018562000dc7565b62001053604083018462000dc7565b949350505050565b7f4e487b7100000000000000000000000000000000000000000000000000000000600052601160045260246000fd5b6000620010978262000978565b91507fffffffffffffffffffffffffffffffffffffffffffffffffffffffffffffffff8203620010cc57620010cb6200105b565b5b600182019050919050565b7f4e487b7100000000000000000000000000000000000000000000000000000000600052602260045260246000fd5b600060028204905060018216806200111f57607f821691505b602082108103620011355762001134620010d7565b5b5091905056fe608060405234801561001057600080fd5b5060405161077238038061077283398181016040528101906100329190610134565b816000819055508060028190555082600360006101000a81548173ffffffffffffffffffffffffffffffffffffffff021916908373ffffffffffffffffffffffffffffffffffffffff160217905550505050610187565b600080fd5b600073ffffffffffffffffffffffffffffffffffffffff82169050919050565b60006100b98261008e565b9050919050565b60006100cb826100ae565b9050919050565b6100db816100c0565b81146100e657600080fd5b50565b6000815190506100f8816100d2565b92915050565b6000819050919050565b610111816100fe565b811461011c57600080fd5b50565b60008151905061012e81610108565b92915050565b60008060006060848603121561014d5761014c610089565b5b600061015b868287016100e9565b935050602061016c8682870161011f565b925050604061017d8682870161011f565b9150509250925092565b6105dc806101966000396000f3fe6080604052600436106100385760003560e01c80632986c0e51461024e5780633c8da5881461027957806389794d00146102a457610240565b36610240576000543414610081576040517f08c379a000000000000000000000000000000000000000000000000000000000815260040161007890610364565b60405180910390fd5b6000600154146100c6576040517f08c379a00000000000000000000000000000000000000000000000000000000081526004016100bd906103d0565b60405180910390fd5b34600160008282546100d89190610429565b925050819055506000600360009054906101000a900473ffffffffffffffffffffffffffffffffffffffff1673ffffffffffffffffffffffffffffffffffffffff163460025460405160240161012e919061048e565b6040516020818303038152906040527f800fb83f000000000000000000000000000000000000000000000000000000007bffffffffffffffffffffffffffffffffffffffffffffffffffffffff19166020820180517bffffffffffffffffffffffffffffffffffffffffffffffffffffffff83818316178352505050506040516101b89190610523565b60006040518083038185875af1925050503d80600081146101f5576040519150601f19603f3d011682016040523d82523d6000602084013e6101fa565b606091505b505090508061023e576040517f08c379a000000000000000000000000000000000000000000000000000000000815260040161023590610586565b60405180910390fd5b005b34801561024c57600080fd5b005b34801561025a57600080fd5b506102636102cf565b604051610270919061048e565b60405180910390f35b34801561028557600080fd5b5061028e6102d5565b60405161029b919061048e565b60405180910390f35b3480156102b057600080fd5b506102b96102db565b6040516102c6919061048e565b60405180910390f35b60025481565b60005481565b60015481565b600082825260208201905092915050565b7f576520646f6e277420737570706f7274207061727469616c207061796d656e7460008201527f7300000000000000000000000000000000000000000000000000000000000000602082015250565b600061034e6021836102e1565b9150610359826102f2565b604082019050919050565b6000602082019050818103600083015261037d81610341565b9050919050565b7f4974656d20697320616c72656164792070616964210000000000000000000000600082015250565b60006103ba6015836102e1565b91506103c582610384565b602082019050919050565b600060208201905081810360008301526103e9816103ad565b9050919050565b6000819050919050565b7f4e487b7100000000000000000000000000000000000000000000000000000000600052601160045260246000fd5b6000610434826103f0565b915061043f836103f0565b9250827fffffffffffffffffffffffffffffffffffffffffffffffffffffffffffffffff03821115610474576104736103fa565b5b828201905092915050565b610488816103f0565b82525050565b60006020820190506104a3600083018461047f565b92915050565b600081519050919050565b600081905092915050565b60005b838110156104dd5780820151818401526020810190506104c2565b838111156104ec576000848401525b50505050565b60006104fd826104a9565b61050781856104b4565b93506105178185602086016104bf565b80840191505092915050565b600061052f82846104f2565b915081905092915050565b7f44656c697665727920646964206e6f7420776f726b0000000000000000000000600082015250565b60006105706015836102e1565b915061057b8261053a565b602082019050919050565b6000602082019050818103600083015261059f81610563565b905091905056fea2646970667358221220ba6bb0fbc8eb53a72fbfd194cca1b4ed6418977c585d1f9f2c9a76cd40c0e60564736f6c634300080d0033a2646970667358221220096ce9f1bcbe3177f02d400c0f73af35b626616027af768266794479e6d96dbf64736f6c634300080d0033",
  "immutableReferences": {},
  "source": "// SPDX-License-Identifier: MIT\npragma solidity ^0.8.0;\nimport \"./Ownable.sol\";\nimport \"./Item.sol\";\n\ncontract ItemManager is Ownable {\n    \n    enum SupplyChainState {\n        Created,\n        Paid,\n        Delivered\n    }\n\n    struct S_Item {\n        Item _item;\n        ItemManager.SupplyChainState _state;\n        string _identifier;\n        uint256 _itemPrice;\n    }\n\n    mapping(uint256 => S_Item) public items;\n    uint256 itemIndex;\n\n    event SupplyChainStep(\n        uint256 _itemIndex,\n        uint256 _step,\n        address _itemAddress\n    );\n\n    function createItem(string memory _identifier, uint256 _itemPrice)\n        public\n        onlyOwner\n    {\n        Item item = new Item(this, _itemPrice, itemIndex);\n        items[itemIndex]._item = item;\n        items[itemIndex]._identifier = _identifier;\n        items[itemIndex]._itemPrice = _itemPrice;\n        items[itemIndex]._state = SupplyChainState.Created;\n        emit SupplyChainStep(\n            itemIndex,\n            uint256(items[itemIndex]._state),\n            address(item)\n        );\n        itemIndex++;\n    }\n\n    function triggerPayment(uint256 _itemIndex) public payable {\n        require(items[_itemIndex]._itemPrice == msg.value, \"Not fully paid\");\n        require(\n            items[_itemIndex]._state == SupplyChainState.Created,\n            \"Item is further in the supply chain\"\n        );\n        items[_itemIndex]._state = SupplyChainState.Paid;\n\n        emit SupplyChainStep(\n            _itemIndex,\n            uint256(items[_itemIndex]._state),\n            address(items[_itemIndex]._item)\n        );\n    }\n\n    function triggerDelivery(uint256 _index) public onlyOwner {\n        require(\n            items[_index]._state == SupplyChainState.Paid,\n            \"Item is further in the supply chain\"\n        );\n        items[_index]._state = SupplyChainState.Delivered;\n        emit SupplyChainStep(\n            _index,\n            uint256(items[_index]._state),\n            address(items[_index]._item)\n        );\n    }\n}\n",
  "sourcePath": "/home/valter/ESTUDOS/solidity/curso_solidity/supply-chain-solution/contracts/ItemManager.sol",
  "compiler": {
    "name": "solc",
    "version": "0.8.13+commit.abaa5c0e.Emscripten.clang"
  },
  "schemaVersion": "3.4.7",
  "updatedAt": "2022-04-24T16:17:12.872Z",
  "networkType": "ethereum",
  "devdoc": {
    "kind": "dev",
    "methods": {
      "isOwner()": {
        "details": "Returns true if the caller is the current owner."
      }
    },
    "version": 1
  },
  "userdoc": {
    "kind": "user",
    "methods": {},
    "version": 1
  }
}